:1000000027C03FC03EC03DC03CC03BC03AC039C025
:1000100038C037C036C0E6C034C033C032C031C08B
:1000200030C0003A37003B38003936003240020217
:1000300002010101010101010101020480402010BF
:100040000804020100000102030400000000000097
:1000500011241FBECFEDCDBF10E0A0E6B0E0E2EA74
:10006000F4E002C005900D92A036B107D9F710E078
:10007000A0E6B0E001C01D92AB36B107E1F70BD2AC
:100080000EC2BECF9C018091600090916100281744
:10009000390709F45AC03093610020936000213081
:1000A000310549F481E061E087D182E060E084D1EC
:1000B00080E061E00BC02230310591F481E060E026
:1000C0007BD182E060E078D180E060E075D183E0B0
:1000D00060E072D188E060E06FD187E061E014C039
:1000E00023303105A9F481E060E066D182E060E070
:1000F00063D180E060E060D183E061E05DD188E0C1
:1001000060E05AD187E060E057D18AE061E017C033
:1001100024303105A9F481E060E04ED182E061E055
:100120004BD180E060E048D183E061E045D188E0D8
:1001300061E042D187E060E03FD18AE060E03CD1FD
:100140006AE070E080E090E096D0089589E06ED19A
:10015000892B19F481E090E00DC086E067D1892BEE
:1001600019F482E090E006C085E060D1892B21F48B
:1001700083E090E087DF089584E058D1892B19F45B
:1001800084E090E07FDF089589E060E0F1D089E0CD
:1001900061E012D186E060E0EBD086E061E00CD156
:1001A00085E060E0E5D085E061E006D184E060E0D4
:1001B000DFD084E061E000D181E061E0D9D082E06D
:1001C00061E0D6D080E061E0D3D083E061E0D0D0C0
:1001D00088E061E0CDD087E061E0CAD08AE061E0EC
:1001E000C7D008951F920F920FB60F9211242F932C
:1001F0003F938F939F93AF93BF93809166009091AD
:100200006700A0916800B091690030916A00232FC7
:100210002A5F2D3728F02D570396A11DB11D03C06D
:100220000296A11DB11D20936A00809366009093F1
:100230006700A0936800B09369008091620090917C
:100240006300A0916400B09165000196A11DB11DED
:100250008093620090936300A0936400B093650064
:10026000BF91AF919F918F913F912F910F900FBEB2
:100270000F901F9018959B01AC017FB7F894809167
:10028000620090916300A0916400B091650062B734
:1002900008B600FE05C06F3F19F00196A11DB11D03
:1002A0007FBFBA2FA92F982F8827860F911DA11DD8
:1002B000B11D63E0880F991FAA1FBB1F6A95D1F774
:1002C000BC012EC0FFB7F89480916200909163004A
:1002D000A0916400B0916500E2B708B600FE05C0C9
:1002E000EF3F19F00196A11DB11DFFBFBA2FA92F35
:1002F000982F88278E0F911DA11DB11DE3E0880F57
:10030000991FAA1FBB1FEA95D1F7861B970B885E22
:100310009340C0F2215030404040504068517C4FE3
:10032000211531054105510569F60895789480B786
:10033000836080BF83B7877F83BF83B7887F8360F5
:1003400083BF89B7816089BF8EB5887F8EBD8FB529
:100350008C7F81608FBD8EB5877E8EBD8EB5887F88
:1003600083608EBD86B1887F866086B9379A08958E
:10037000482F50E0CA01875C9F4FFC012491425DE9
:100380005F4FFA0184918823B1F0E82FF0E0EE5D31
:10039000FF4FE491F0E0662341F49FB7F894808129
:1003A0002095822380839FBF08959FB7F894808112
:1003B000822B80839FBF0895282F482F50E0CA01C9
:1003C000875C9F4FFC013491425D5F4FFA0194912D
:1003D000992359F1223019F480B78F7304C0233068
:1003E00021F480B78F7C80BF0AC0243019F48FB508
:1003F0008F7304C0253019F48FB58F7C8FBDE92F22
:10040000F0E0EB5DFF4FE491F0E0662341F49FB72D
:10041000F89480813095832380839FBF08959FB790
:10042000F8948081832B80839FBF0895282F482FC5
:1004300050E0CA01875C9F4FFC019491425D5F4F81
:10044000FA013491332319F420E030E022C0223045
:1004500019F480B78F7304C0233021F480B78F7CE8
:1004600080BF0AC0243019F48FB58F7304C02530C3
:1004700019F48FB58F7C8FBDE32FF0E0E85DFF4F5F
:10048000E491F0E0808120E030E0892311F021E068
:1004900030E0C90108954ADF77DE58DEFECFF894D8
:0204A000FFCF8C
:00000001FF
